:10000000B8C00000D1C00000CFC00000CDC00000CB
:10001000CBC00000C9C00000C7C00000C5C00000C0
:10002000C3C00000C1C00000BFC00000FAC3000090
:10003000BBC00000B9C00000B7C00000B5C00000E0
:10004000B3C00000B1C00000AFC00000ADC00000F0
:10005000ABC00000A9C00000A7C00000A5C0000000
:10006000A3C00000A1C000009FC000009DC0000010
:100070009BC000002E034C005500460041002000AC
:100080004D004900440049005F0053004500520004
:10009000490041004C005F00430044004300000061
:1000A00018034400650061006E00200043006100F9
:1000B0006D0065007200610000000403090409027C
:1000C000A200040100C032080B0002020201000974
:1000D00004000001020201000524001001042402B2
:1000E000060524060001070582030800FF09040134
:1000F00000020A000000070504021000050705833E
:100100000210000509040200000101000009240199
:1001100000010900010109040300020103000007B6
:10012000240100014100062402010100062402020C
:10013000020009240301030102010009240302044F
:10014000010101000905010240000500000525012B
:100150000101090582024000050000052501010397
:1001600012011001EF020108EB034B200100010214
:10017000DC0111241FBECFEFD4E0DEBFCDBF11E004
:10018000A0E0B1E0E8E8F0E102C005900D92A435EE
:10019000B107D9F711E0A4E5B1E001C01D92A13685
:1001A000B107E1F749D06EC72BCF0F931F93CF93C1
:1001B000DF9300D000D0CDB7DEB7962F92959F7019
:1001C0009983862B8A834B832C830AE111E0C80133
:1001D000BE016F5F7F4FF1D6C8010CD70F900F9013
:1001E0000F900F90DF91CF911F910F91089584B7D9
:1001F000877F84BF88E10FB6F894809360001092E7
:1002000060000FBE90E080E80FB6F8948093610024
:10021000909361000FBE3E9A3F9A46984798F2D25B
:10022000469A8FEF92E5A7E081509040A040E1F719
:1002300000C0000046980895DADFA895789486E219
:1002400091E074D6EC0197FD28C086E291E06C2F16
:1002500000D686E291E060E071E0D9D5469A86E268
:1002600091E063E071E0D3D580E060E94C2F28E7AE
:100270009CDF8FEF93ECA9E081509040A040E1F724
:1002800000C0000080E060E84CE320E08EDF46988C
:1002900086E291E06EE071E0BAD586E291E02ED67A
:1002A0008AE191E0BED6C6D4CACF479A089547984E
:1002B000089586E291E087D58AE191E068D686E0EC
:1002C000469A2FE738E341E0215030404040E1F7C3
:1002D00000C0000046982FE738E341E0215030404D
:1002E0004040E1F700C00000815051F7089586E2D8
:1002F00091E0BCC4CF93FC01A18DA150A23028F4A1
:10030000B0E0AF5BBE4FCC9101C0C0E0808D8230C9
:1003100009F4C860828D873031F0883031F0863042
:1003200029F4C26003C0C46001C0C6601092C90055
:100330001092C8001092CA002489358946895789CD
:10034000DA01C901B695A7959795879580589B477F
:10035000A14EBF4FBC01CD0173D621503040309328
:10036000CD002093CC00C093CA0082E08093C800E7
:1003700088E98093C900CF910895923029F0933095
:1003800041F09130E9F417C082EA90E0EEEBF0E042
:100390001BC0813041F0813018F0823089F406C0F2
:1003A000EAEBF0E005C0E0EAF0E002C0E4E7F0E0EC
:1003B000849190E009C082E190E0E0E6F1E004C0C1
:1003C00080E090E0E0E0F0E0DA011196FC93EE933B
:1003D0000895AF92BF92CF92DF92EF92FF921F9358
:1003E000CF93DF93EC017B016A01A0D1182F882302
:1003F000A9F5C114D10439F0F60120813181E21A46
:10040000F30AC20FD31FAA24BB2423C08091E800A3
:1004100085FD16C08091E8008E778093E8000AD4AD
:10042000C114D10449F0F601808191818A0D9B1D90
:100430009183808315E012C079D1882351F00DC0DB
:1004400089918093F1000894E108F1080894A11CB7
:10045000B11CE114F104D1F601C0182F812FDF91F6
:10046000CF911F91FF90EF90DF90CF90BF90AF9012
:10047000089520915F01309160012617370728F415
:10048000B901582F492F20E03FC061157105C9F708
:100490002091E8002E772093E800F3CF8091580157
:1004A000882309F447C0853009F440C08091E800F2
:1004B00083FD3EC08091E80082FD32C08091E8005B
:1004C00080FF22C02091F20030E0E52FF42F2E1B98
:1004D0003F0B05C081918093F10061507040CF01C6
:1004E000820F931F6115710519F08830910590F303
:1004F00021E08830910509F020E08091E8008E77B6
:100500008093E8005E2F4F2F6115710539F6222385
:1005100029F606C080915801882361F0853061F08A
:100520008091E80082FFF6CF80E0089583E008958F
:1005300081E0089582E0089583E0089520915F01AD
:10054000309160012617370728F4B901582F492F39
:1005500020E040C061157105C9F72091E8002E77B1
:100560002093E800F3CF80915801882309F448C014
:10057000853009F441C08091E80083FD3FC080913F
:10058000E80082FD33C08091E80080FF23C0209105
:10059000F20030E0E52FF42F2E1B3F0B06C08491B4
:1005A0008093F100319661507040C9018E0F9F1FFA
:1005B0006115710519F08830910588F321E08830C4
:1005C000910509F020E08091E8008E778093E800A3
:1005D0005E2F4F2F6115710531F6222321F606C0DB
:1005E00080915801882361F0853061F08091E800A6
:1005F00082FFF6CF80E0089583E0089581E00895BA
:1006000082E0089583E00895982F2AC09093E9002E
:10061000981739F07091EC002091ED005091F000A6
:1006200003C0242F762F50E021FF19C03091EB003A
:100630003E7F3093EB003091ED003D7F3093ED0035
:100640003091EB0031603093EB007093EC0020931D
:10065000ED005093F0002091EE0027FF08C09F5F4F
:100660009530A0F28F708093E90081E0089580E0DA
:1006700008950F931F93CF93DF93162FEC0100E0A3
:100680002AC09881992329F16B81E981FA812C8113
:10069000892F8F70853018F56295660F660F607C24
:1006A000991F9927991F692B223010F096E001C0FD
:1006B00092E028E030E040E003C04F5F220F331F9C
:1006C0002E173F07D0F34295407F492B9DDF8823AB
:1006D00031F00F5F25960117A1F681E001C080E09F
:1006E000DF91CF911F910F9108958091590187FF5C
:1006F00013C004C0809158018823B9F08091E800AC
:1007000082FFF8CF8091E8008B778093E80008950E
:1007100080915801882349F08091E80080FFF8CF4C
:100720008091E8008E778093E80008958091E4003E
:100730009091E50045E601C0C9012091EC0020FF41
:1007400023C02091E80020FD15C0209158012223EC
:1007500099F0253099F02091EB0025FD11C02091F2
:10076000E4003091E5002817390739F3415021F7AB
:1007700084E0089580E0089582E0089583E008957C
:1007800081E0089580E008952091E80022FFDDCF08
:10079000F9CF41D043D08091D8008F778093D80093
:1007A0008091D80080688093D8008091D8008F7D98
:1007B0008093D80084E089BD86E089BD09B400FE3D
:1007C000FDCF1092580110925401109256011092D0
:1007D000550180E060E042E017DF8091E1008E7F0C
:1007E0008093E1008091E20081608093E20080913B
:1007F000E20088608093E2008091E0008E7F809329
:10080000E0000895E3E6F0E080818E7F808381E060
:1008100080935701BECF1092E20008951092E1003C
:1008200008951F920F920FB60F9211242F933F93AA
:100830004F935F936F937F938F939F93AF93BF93E8
:10084000EF93FF938091E10082FF0AC08091E20064
:1008500082FF06C08091E1008B7F8093E100E9D1A7
:100860008091E10080FF17C08091E20080FF13C0FB
:100870008091E2008E7F8093E2008091E2008061AF
:100880008093E2008091D80080628093D80019BCE8
:10089000109258010CDD8091E10084FF2DC0809101
:1008A000E20084FF29C084E089BD86E089BD09B4E7
:1008B00000FEFDCF8091D8008F7D8093D80080917D
:1008C000E1008F7E8093E1008091E2008F7E809333
:1008D000E2008091E20081608093E2008091540107
:1008E000882321F48091E30087FF02C084E001C0E7
:1008F00081E080935801D9DC8091E10083FF22C020
:100900008091E20083FF1EC08091E100877F809389
:10091000E10082E080935801109254018091E1003F
:100920008E7F8093E1008091E2008E7F8093E200D1
:100930008091E20080618093E20080E060E042E02C
:1009400063DE77D1FF91EF91BF91AF919F918F912E
:100950007F916F915F914F913F912F910F900FBEBB
:100960000F901F9018951F93CF93DF93CDB7DEB7ED
:10097000AC970FB6F894DEBF0FBECDBF80E0E9E5BF
:10098000F1E09091F10091938F5F8830D1F7AFDC67
:100990008091E80083FF35C18091590120915A016F
:1009A000253009F484C0263040F42130A1F12130F3
:1009B00070F0233009F025C12EC0283009F4F3C0AF
:1009C000293009F402C1263009F01BC193C08038D8
:1009D00021F0823809F015C108C08091550190912D
:1009E0005601992371F082600CC080915D018F7077
:1009F0008093E9009091EB0081E095FF80E01092F8
:100A0000E9009091E800977F9093E8008093F100CF
:100A10001092F100D3C0882319F0823009F0F1C0A0
:100A200090E08F719070009729F08230910509F065
:100A3000E8C00BC080915B01813009F0E2C0233037
:100A400009F080E0809356012CC080915B018823DF
:100A500041F520915D012F7009F4D3C02093E90086
:100A60008091EB0080FF1DC080915A01833021F4FA
:100A70008091EB00806213C08091EB0080618093D5
:100A8000EB0081E090E002C0880F991F2A95E2F701
:100A90008093EA001092EA008091EB0088608093D6
:100AA000EB001092E9008091E800877F8AC08823DC
:100AB00009F0A7C010915B011F778091E300807857
:100AC000812B8093E3008091E800877F8093E8008A
:100AD0000CDE8091E80080FFFCCF8091E30080680D
:100AE0008093E300112311F083E001C082E0809342
:100AF000580187C08058823008F083C080915B0124
:100B000090915C0123E08C3D9207A9F583E08C83F2
:100B10008AE28B835FB7F894DE01139680E090E061
:100B20004EE061E2E42FF0E060935700E49180FF33
:100B300003C0E295EF704F5FEF702E2F30E0EA3088
:100B400018F0295C3F4F02C0205D3F4F13963C9345
:100B50002E931297019612968431910519F75FBF73
:100B60008091E800877F8093E800CE0103966AE2D7
:100B700070E07FDC12C060915D01AE014F5F5F4F9E
:100B8000FCDBBC01009709F43CC08091E800877F42
:100B90008093E80089819A81D1DC8091E8008B778D
:100BA0008093E8002EC0803861F58091E800877F4F
:100BB0008093E800809154018093F1008091E800D7
:100BC0008E778093E80091DD1CC08823D1F490914A
:100BD0005B019230B0F48091E800877F8093E80059
:100BE0009093540182DD80915401882321F48091F7
:100BF000E30087FF02C084E001C081E080935801D8
:100C000058DB8091E80083FF0AC08091EB0080628E
:100C10008093EB008091E800877F8093E800AC969A
:100C20000FB6F894DEBF0FBECDBFDF91CF911F91FD
:100C300008950895CF93809158018823A9F0809159
:100C4000E9008F709091EC0090FF02C0C0E801C0F5
:100C5000C0E0C82B1092E9008091E80083FF01C03A
:100C600082DECF70C093E900CF910895CF93DF93D8
:100C7000EC018091E80083FFA3C0888190E020917F
:100C80005D0130915E012817390709F099C0809104
:100C90005A01813269F0823220F4803209F090C02A
:100CA0003CC0823209F46BC0833209F089C07AC03B
:100CB00080915901813A09F083C08091E800877FD3
:100CC0008093E8008091E80080FFFCCF8C899D89AB
:100CD000AE89BF898093F100492F5A2F6B2F772758
:100CE0004093F100AD01662777274093F1008B2FE9
:100CF0009927AA27BB278093F100888D8093F10064
:100D0000898D8093F1008A8D8093F1008091E800B5
:100D10008E778093E800E9DC53C0809159018132DD
:100D200009F04EC08091E800877F8093E80005C0FD
:100D300080915801882309F443C08091E80082FF24
:100D4000F7CF3091F1002091F1009091F100809166
:100D5000F1003C8B2D8B9E8B8F8B8091F100888FC7
:100D60008091F100898F8091F1008A8F8091E80055
:100D70008B778093E800B9DCCE01BCDA21C080918A
:100D800059018132E9F48091E800877F8093E8007F
:100D9000ACDC80915B0190915C01998B888BCE01DA
:100DA000F5D00EC080915901813251F48091E80054
:100DB000877F8093E80099DCCE0160915B01E6D0EB
:100DC000DF91CF910895CF93DF93EC014096FC0122
:100DD0008BE0DF011D928A95E9F782E08C83898799
:100DE00083E08E87CE01019661E043DC882359F0D1
:100DF000CE01069661E03DDC882329F0CE010B96FA
:100E000061E037DC01C080E0DF91CF910895FC0103
:100E1000CB01209158012430C1F444895589668959
:100E20007789411551056105710589F021812F7080
:100E30002093E900FC0101900020E9F73197E81BBD
:100E4000F90BBF0140E050E0C4CA82E0089582E09F
:100E50000895CF93FC01C62F809158018430E9F4A6
:100E60004489558966897789411551056105710560
:100E7000A1F081818F708093E9008091E80085FD69
:100E800008C08091E8008E778093E8004FDC8823CB
:100E900029F4C093F10080E001C082E0CF91089571
:100EA000FC0180915801843019F54489558966897F
:100EB00077894115510561057105D1F081818F70E8
:100EC0008093E9008091F2008823A1F09091E800DE
:100ED0008091E8008E778093E80095FD0DC026DCB8
:100EE000882359F49091E8009E779093E800089544
:100EF00082E0089580E0089580E0089520915801EF
:100F0000243099F4FC014489558966897789411513
:100F100051056105710549F021812F702093E90089
:100F20002091E80020FF01C0BBCF0895FC01809113
:100F30005801843029F54489558966897789411596
:100F4000510561057105E1F086818F708093E9009C
:100F50008091E80082FF17C08091F200882321F081
:100F60008091F10090E002C08FEF9FEF2091F2009E
:100F7000222359F42091E8002B772093E80008956C
:100F80008FEF9FEF08958FEF9FEF08950895CF9310
:100F9000DF93EC011B8682E08C838987CE0101966A
:100FA00061E067DB882329F0CE01069661E061DB12
:100FB00001C080E0DF91CF910895FC01CB01209129
:100FC00058012430A9F421812F702093E90064E0B6
:100FD00070E040E050E0FDD9882359F49091E8009A
:100FE00095FD07C09091E8009E779093E8000895E2
:100FF00082E0089520915801243079F4FC01818128
:101000008F708093E9008091F200882341F08091F5
:10101000E8008E778093E80089CB82E0089580E035
:10102000089520915801243051F4FC0121812F7042
:101030002093E9002091E80020FF01C0DBCF089554
:10104000A1E21A2EAA1BBB1BFD010DC0AA1FBB1FCC
:10105000EE1FFF1FA217B307E407F50720F0A21B3E
:10106000B30BE40BF50B661F771F881F991F1A94AB
:1010700069F760957095809590959B01AC01BD01D5
:08108000CF010895F894FFCFA1
:101088000D0A004E6F7465204F6E200D0A004E6FDA
:101098007465204F6666200D0A0001824000000139
:1010A800014000000100008310000001041000004E
:1010B800018208000001000000000000000000009C
:1010C800003020A120000000000200A10100000063
:0410D8000000000014
:00000001FF
